:1000000001308A00C2290000FF00030E8301A10015
:100010000A08A0008A010408A2007708A300780853
:10002000A4007908A5007A08A600831383120B1E8A
:100030001B288B1838288C308400001C21280C18B1
:100040003B288C308400801D27288C193E282208EC
:1000500084002308F7002408F8002508F900260882
:10006000FA0020088A00210E8300FF0E7F0E09008F
:100070008A110A12BA288A110A1292298A110A12BE
:100080004E2813087008930014168C118316141848
:100090004728F8018312141AF80A08008316941AE4
:1000A00059288312E9018316141D59288312E91770
:1000B000831683126908E90AEE006E087F3C031C70
:1000C0007D2814138C1D622813081416ED006E0B86
:1000D0006B286D08B4006E08023C031D7D28B4082F
:1000E000031D7728ED08031D77282F147D2837304E
:1000F0003407840083136D0880006E08803C031D64
:100100009B28B408031D8C282B08B0002C08B100D4
:100110002D08B2002E08B3003408043C031C9928B3
:1001200030303407840083130008EF00F0004120D2
:100130009B28F00141206E08813C031DA228310854
:10014000F00041206E08823C031DA9283208F0000F
:1001500041206E08833C031DB0283308F000412085
:100160006E08833C0318B628F00141208C118A11D7
:100170000A1227283608F1003508F0000F08FA00A7
:100180000E08F7000F087A02031DBE287708ED005D
:100190007A08EE00EF018316091083120910831606
:1001A0008910831289102814280883168700831267
:1001B000EF010718EF0A8316091083120914281497
:1001C0002808831687000030831207180130F700D3
:1001D0000310F70D7708EF04831609108312091036
:1001E000831689108312891428142808831687001F
:1001F0000030831207180130F700F70DF70DFC30BF
:10020000F7057708EF0483160910831209142814E0
:100210002808831687000030831207180130F70082
:10022000F70DF70DF70DF830F7057708EF04831693
:10023000861108308312860683160911831209116C
:1002400083160911831209158F018E01B601B501BC
:100250008316A301A2017108A1007008A000210863
:10026000A3002008A200A001A101A20DA30DA20DD0
:10027000A30DA20DA30DA20DA30DF030A205A801A0
:10028000A70183126E088316A60083126D088316D9
:10029000A500250DF700260DF800270DF900280D03
:1002A000FA00F70DF80DF90DFA0DF70DF80DF90D2F
:1002B000FA0DF70DF80DF90DFA0DF030F705770886
:1002C000A00778080318780FA10779080318790F99
:1002D000A2077A0803187A0FA3078312F801F9011D
:1002E000FA016F08831620078312AB0083162108DA
:1002F0008312AC0078080318780FAC078316220825
:100300008312AD0079080318790FAD07831623080F
:100310008312AE007A0803187A0FAE078B108A1189
:100320000A122728B50A0319B60A0C108A110A12F4
:1003300027286B308400831300080319AC2906308A
:10034000F800F701F70BA229F80BA1297B30F70081
:10035000F70BA829800B9F2908003708EB00013014
:10036000EA006A086B02031CC12937306A0784005F
:1003700083130008EC006C080C1EBC299900EA0AE3
:10038000B1290800840183131F30830583160317E6
:10039000871508300313990002309A00A6309800A0
:1003A000903083129800A8152808831687008312BE
:1003B0002816280883168700A2309300363083124F
:1003C0009400B401B601B501831603170908C039BA
:1003D000890003131F129F12003003178800831235
:1003E0008701880189010313A701FF30A800A90133
:1003F000AA012830B700B530B8006230B900063025
:10040000BA003130BB002030BC00BD01BE01BF01CD
:10041000C001C1013230C200C301C401C501803036
:10042000C6009630C7009830C800C901E030CA0045
:10043000C830CB001030CC00CD016430CE00CF01ED
:10044000D001D101D201D301D401D501D601D70108
:10045000D801D9017330DA00DB01DC01DD01C630DF
:10046000DE005130DF00E001E101E201E301E401DF
:10047000E501E601E701E8010330E900831603170F
:100480000908C039890003131F129F120030031797
:100490008800831203131F1083160108C739083818
:1004A000810009308312031785000F30F700031312
:1004B00081018130840083130008F03907388000FF
:1004C00064000008F739F719F03977048000073025
:1004D00090000030F80092000030831692008312E2
:1004E00003178701880189018316031397016400AC
:1004F00004308312EA00FA30EB009921EA0B7B2AE0
:100500006400AD21831601170C1483120B16831699
:100510008C15C03083128B04B001B101B201B3015C
:100520002F1064000430EA00FA30EB009921EA0B46
:10053000942A2F1C9D2AAD212F1083168611083076
:0805400083128606912A630074
:04400E00EA2CFF3F5A
:00000001FF
;PIC16F887
;CRC=24C8  CREATED="26-Oct-14 00:38"
