:1000000000308A004E280000FF00030E8301A1008B
:100010000A08A0008A010408A2007708A300780853
:10002000A4007908A5007A08A600831383120B1E8A
:100030001B288B182C28220884002308F70024088A
:10004000F8002508F9002608FA0020088A00210E89
:100050008300FF0E7F0E09008A110A122F28271C29
:100060004528831605108312051083168910023067
:100070008312890664000230F700F70B3D28402800
:1000800083160510831205142710831609110430F6
:10009000831289068B108A110A121B28840183138C
:1000A0001F3083058316031787110C300313990043
:1000B000A230980090308312980083160317090825
:1000C000C039890003131F129F12003003178800E4
:1000D0008312870188018901FF300313A900831669
:1000E00003170908C039890003131F129F1200303B
:1000F00003178800831203131F139F1383169F1384
:1001000083121F149412A9122908831687008312E0
:1001100029162908831687008312A9112908831636
:100120008700013083129400003083169400010888
:10013000C7390838810001308312031785000F305A
:10014000F700031381018130840083130008F03924
:100150000738800064000008F739F719F039770490
:10016000800090010030F800920000308316920069
:100170008312291529088316870083129701831695
:100180009B019C0101309D008312031787018801A8
:1001900089018316031305108312051483160910B1
:1001A0008312091483168910831289148316091186
:1001B0008312091527100B16C0308B0464008C1EA7
:1001C000DE281A08243C031DDE2864008C1EE52866
:1001D0001A08473C031DDE2864008C1EEC281A0810
:1001E000503C031DDE2864008C1EF3281A08523C84
:1001F000031DDE2864008C1EFA281A084D3C031DDE
:10020000DE2864008C1E01291A08433C031DDE28E9
:1002100064008C1E08291A082C3C031DDE2864008B
:100220008C1E0F291A0864008C1E13291A086400FA
:100230008C1E17291A0864008C1E1B291A086400DA
:100240008C1E1F291A088316091001308312890693
:1002500064008C1E28291A08A8002808393C031DB0
:1002600033292714DE2864008C1E33291A08640001
:100270008C1E37291A0864008C1E3B291A0864005A
:100280008C1E3F291A0864008C1E43291A08413C21
:100290000319532983168512831285162808303CCA
:1002A0000319271457298316851283128512DE2815
:0202B0006300E9
:04400E00EA2CFF3F5A
:00000001FF
;PIC16F887
;CRC=9C8E  CREATED="02-I-14 20:56"
